{"abi":[{"type":"constructor","inputs":[],"stateMutability":"nonpayable"},{"type":"function","name":"agents","inputs":[{"name":"","type":"string","internalType":"string"}],"outputs":[{"name":"","type":"address","internalType":"address"}],"stateMutability":"view"},{"type":"function","name":"buy","inputs":[{"name":"_muuid","type":"string","internalType":"string"},{"name":"_auuid","type":"string","internalType":"string"}],"outputs":[],"stateMutability":"nonpayable"},{"type":"function","name":"createTask","inputs":[{"name":"_uuid","type":"string","internalType":"string"},{"name":"_price","type":"uint256","internalType":"uint256"}],"outputs":[],"stateMutability":"nonpayable"},{"type":"function","name":"finishTask","inputs":[{"name":"_taskid","type":"string","internalType":"string"},{"name":"_uuid","type":"string","internalType":"string"}],"outputs":[],"stateMutability":"payable"},{"type":"function","name":"getAgent","inputs":[{"name":"_uuid","type":"string","internalType":"string"}],"outputs":[{"name":"","type":"address","internalType":"address"}],"stateMutability":"view"},{"type":"function","name":"getPermission","inputs":[{"name":"_muuid","type":"string","internalType":"string"},{"name":"_auuid","type":"string","internalType":"string"}],"outputs":[{"name":"","type":"bool","internalType":"bool"}],"stateMutability":"view"},{"type":"function","name":"getTask","inputs":[{"name":"_uuid","type":"string","internalType":"string"}],"outputs":[{"name":"_ti","type":"tuple","internalType":"struct Membase.taskInfo","components":[{"name":"fin","type":"bool","internalType":"bool"},{"name":"owner","type":"address","internalType":"address"},{"name":"price","type":"uint256","internalType":"uint256"},{"name":"value","type":"uint256","internalType":"uint256"},{"name":"winner","type":"string","internalType":"string"}]}],"stateMutability":"view"},{"type":"function","name":"joinTask","inputs":[{"name":"_taskid","type":"string","internalType":"string"},{"name":"_uuid","type":"string","internalType":"string"}],"outputs":[],"stateMutability":"payable"},{"type":"function","name":"register","inputs":[{"name":"_uuid","type":"string","internalType":"string"}],"outputs":[],"stateMutability":"nonpayable"},{"type":"function","name":"version","inputs":[],"outputs":[{"name":"","type":"string","internalType":"string"}],"stateMutability":"view"},{"type":"event","name":"Received","inputs":[{"name":"from","type":"address","indexed":false,"internalType":"address"},{"name":"amount","type":"uint256","indexed":false,"internalType":"uint256"}],"anonymous":false},{"type":"event","name":"Sent","inputs":[{"name":"from","type":"address","indexed":false,"internalType":"address"},{"name":"to","type":"address","indexed":false,"internalType":"address"},{"name":"amount","type":"uint256","indexed":false,"internalType":"uint256"}],"anonymous":false}],"bytecode":{"object":"0x60c060405260056080908152640302e312e360dc1b60a0525f9061002390826100cd565b5034801561002f575f5ffd5b50610187565b634e487b7160e01b5f52604160045260245ffd5b600181811c9082168061005d57607f821691505b60208210810361007b57634e487b7160e01b5f52602260045260245ffd5b50919050565b601f8211156100c857805f5260205f20601f840160051c810160208510156100a65750805b601f840160051c820191505b818110156100c5575f81556001016100b2565b50505b505050565b81516001600160401b038111156100e6576100e6610035565b6100fa816100f48454610049565b84610081565b6020601f82116001811461012c575f83156101155750848201515b5f19600385901b1c1916600184901b1784556100c5565b5f84815260208120601f198516915b8281101561015b578785015182556020948501946001909201910161013b565b508482101561017857868401515f19600387901b60f8161c191681555b50505050600190811b01905550565b611120806101945f395ff3fe60806040526004361061008f575f3560e01c806368ba8e1e1161005757806368ba8e1e14610130578063794464e91461015f578063c63e529b14610196578063cf6ee0cb146101b5578063f2c298be146101f5575f5ffd5b806304fe2b3414610093578063145448b9146100b457806317c9e4f0146100c75780634240803d146100da57806354fd4d501461010f575b5f5ffd5b34801561009e575f5ffd5b506100b26100ad366004610db1565b610214565b005b6100b26100c2366004610df3565b6102f5565b6100b26100d5366004610df3565b610547565b3480156100e5575f5ffd5b506100f96100f4366004610e58565b610898565b6040516101069190610ec0565b60405180910390f35b34801561011a575f5ffd5b50610123610a34565b6040516101069190610f0c565b34801561013b575f5ffd5b5061014f61014a366004610df3565b610abf565b6040519015158152602001610106565b34801561016a575f5ffd5b5061017e610179366004610e58565b610b08565b6040516001600160a01b039091168152602001610106565b3480156101a1575f5ffd5b506100b26101b0366004610df3565b610b38565b3480156101c0575f5ffd5b5061017e6101cf366004610e58565b80516020818301810180516001825292820191909301209152546001600160a01b031681565b348015610200575f5ffd5b506100b261020f366004610e58565b610c66565b5f6001600160a01b031660038360405161022e9190610f25565b908152604051908190036020019020546001600160a01b0361010090910416146102885760405162461bcd60e51b815260206004820152600660248201526565786973747360d01b60448201526064015b60405180910390fd5b336003836040516102999190610f25565b90815260200160405180910390205f0160016101000a8154816001600160a01b0302191690836001600160a01b03160217905550806003836040516102de9190610f25565b908152604051908190036020019020600101555050565b5f6001600160a01b031660038360405161030f9190610f25565b908152604051908190036020019020546001600160a01b0361010090910416036103655760405162461bcd60e51b81526020600482015260076024820152666e6f207461736b60c81b604482015260640161027f565b6003826040516103759190610f25565b9081526040519081900360200190205460ff16156103be5760405162461bcd60e51b81526020600482015260066024820152650ccd2dcd2e6d60d31b604482015260640161027f565b336001600160a01b03166001826040516103d89190610f25565b908152604051908190036020019020546001600160a01b03161461042f5760405162461bcd60e51b815260206004820152600e60248201526d34b63632b3b0b61031b0b63632b960911b604482015260640161027f565b60038260405161043f9190610f25565b9081526020016040518091039020600101543410156104885760405162461bcd60e51b815260206004820152600560248201526434b739bab360d91b604482015260640161027f565b600160028360405161049a9190610f25565b9081526020016040518091039020826040516104b69190610f25565b908152604051908190036020018120805492151560ff199093169290921790915534906003906104e7908590610f25565b90815260200160405180910390206002015f8282546105069190610f4f565b9091555050604080513381523460208201527f88a5966d370b9919b20f3e2c13ff65706f196a4e32cc2c12bf57088f88525874910160405180910390a15050565b5f6001600160a01b03166003836040516105619190610f25565b908152604051908190036020019020546001600160a01b0361010090910416036105b75760405162461bcd60e51b81526020600482015260076024820152666e6f207461736b60c81b604482015260640161027f565b6003826040516105c79190610f25565b9081526040519081900360200190205460ff16156106105760405162461bcd60e51b81526020600482015260066024820152650ccd2dcd2e6d60d31b604482015260640161027f565b5f6001600160a01b031660018260405161062a9190610f25565b908152604051908190036020019020546001600160a01b03160361067b5760405162461bcd60e51b81526020600482015260086024820152671b9bc81859d95b9d60c21b604482015260640161027f565b5f606460038460405161068e9190610f25565b908152602001604051809103902060020154605f6106ac9190610f62565b6106b69190610f79565b90505f6001836040516106c99190610f25565b908152604051908190036020018120546001600160a01b0316915083906003906106f4908790610f25565b90815260200160405180910390206003019081610711919061101c565b506040516001600160a01b0382169083156108fc029084905f818181858888f19350505050158015610745573d5f5f3e3d5ffd5b50604080513081526001600160a01b03831660208201529081018390527f3990db2d31862302a685e8086b5755072a6e2b5b780af1ee81ece35ee3cd33459060600160405180910390a1816003856040516107a09190610f25565b9081526020016040518091039020600201546107bc91906110d7565b91506003846040516107ce9190610f25565b908152604051908190036020018120546001600160a01b03610100909104169150819083156108fc029084905f818181858888f19350505050158015610816573d5f5f3e3d5ffd5b50604080513081526001600160a01b03831660208201529081018390527f3990db2d31862302a685e8086b5755072a6e2b5b780af1ee81ece35ee3cd33459060600160405180910390a160016003856040516108729190610f25565b908152604051908190036020019020805491151560ff1990921691909117905550505050565b6108d16040518060a001604052805f151581526020015f6001600160a01b031681526020015f81526020015f8152602001606081525090565b6003826040516108e19190610f25565b90815260408051602092819003830190205461010090046001600160a01b03169183019190915251600390610917908490610f25565b9081526020016040518091039020600301805461093390610f98565b80601f016020809104026020016040519081016040528092919081815260200182805461095f90610f98565b80156109aa5780601f10610981576101008083540402835291602001916109aa565b820191905f5260205f20905b81548152906001019060200180831161098d57829003601f168201915b505050505081608001819052506003826040516109c79190610f25565b90815260408051918290036020019091206001015482820152516003906109ef908490610f25565b908152604080519182900360200190912060020154606083015251600390610a18908490610f25565b9081526040519081900360200190205460ff1615158152919050565b5f8054610a4090610f98565b80601f0160208091040260200160405190810160405280929190818152602001828054610a6c90610f98565b8015610ab75780601f10610a8e57610100808354040283529160200191610ab7565b820191905f5260205f20905b815481529060010190602001808311610a9a57829003601f168201915b505050505081565b5f600283604051610ad09190610f25565b908152602001604051809103902082604051610aec9190610f25565b9081526040519081900360200190205460ff1690505b92915050565b5f600182604051610b199190610f25565b908152604051908190036020019020546001600160a01b031692915050565b5f6001600160a01b0316600183604051610b529190610f25565b908152604051908190036020019020546001600160a01b031603610ba35760405162461bcd60e51b81526020600482015260086024820152671b9bc81859d95b9d60c21b604482015260640161027f565b336001600160a01b0316600182604051610bbd9190610f25565b908152604051908190036020019020546001600160a01b031614610c145760405162461bcd60e51b815260206004820152600e60248201526d34b63632b3b0b61031b0b63632b960911b604482015260640161027f565b6001600283604051610c269190610f25565b908152602001604051809103902082604051610c429190610f25565b908152604051908190036020019020805491151560ff199092169190911790555050565b5f6001600160a01b0316600182604051610c809190610f25565b908152604051908190036020019020546001600160a01b031614610ccf5760405162461bcd60e51b815260206004820152600660248201526565786973747360d01b604482015260640161027f565b33600182604051610ce09190610f25565b90815260405190819003602001902080546001600160a01b03929092166001600160a01b031990921691909117905550565b634e487b7160e01b5f52604160045260245ffd5b5f82601f830112610d35575f5ffd5b813567ffffffffffffffff811115610d4f57610d4f610d12565b604051601f8201601f19908116603f0116810167ffffffffffffffff81118282101715610d7e57610d7e610d12565b604052818152838201602001851015610d95575f5ffd5b816020850160208301375f918101602001919091529392505050565b5f5f60408385031215610dc2575f5ffd5b823567ffffffffffffffff811115610dd8575f5ffd5b610de485828601610d26565b95602094909401359450505050565b5f5f60408385031215610e04575f5ffd5b823567ffffffffffffffff811115610e1a575f5ffd5b610e2685828601610d26565b925050602083013567ffffffffffffffff811115610e42575f5ffd5b610e4e85828601610d26565b9150509250929050565b5f60208284031215610e68575f5ffd5b813567ffffffffffffffff811115610e7e575f5ffd5b610e8a84828501610d26565b949350505050565b5f81518084528060208401602086015e5f602082860101526020601f19601f83011685010191505092915050565b6020815281511515602082015260018060a01b03602083015116604082015260408201516060820152606082015160808201525f608083015160a080840152610e8a60c0840182610e92565b602081525f610f1e6020830184610e92565b9392505050565b5f82518060208501845e5f920191825250919050565b634e487b7160e01b5f52601160045260245ffd5b80820180821115610b0257610b02610f3b565b8082028115828204841417610b0257610b02610f3b565b5f82610f9357634e487b7160e01b5f52601260045260245ffd5b500490565b600181811c90821680610fac57607f821691505b602082108103610fca57634e487b7160e01b5f52602260045260245ffd5b50919050565b601f82111561101757805f5260205f20601f840160051c81016020851015610ff55750805b601f840160051c820191505b81811015611014575f8155600101611001565b50505b505050565b815167ffffffffffffffff81111561103657611036610d12565b61104a816110448454610f98565b84610fd0565b6020601f82116001811461107c575f83156110655750848201515b5f19600385901b1c1916600184901b178455611014565b5f84815260208120601f198516915b828110156110ab578785015182556020948501946001909201910161108b565b50848210156110c857868401515f19600387901b60f8161c191681555b50505050600190811b01905550565b81810381811115610b0257610b02610f3b56fea264697066735822122068221612f9359d9802ef8114ad34cdf5a11b4c425f3e2fd3e465fc3f3044f1b564736f6c634300081c0033","linkReferences":{}},"methodIdentifiers":{"agents(string)":"cf6ee0cb","buy(string,string)":"c63e529b","createTask(string,uint256)":"04fe2b34","finishTask(string,string)":"17c9e4f0","getAgent(string)":"794464e9","getPermission(string,string)":"68ba8e1e","getTask(string)":"4240803d","joinTask(string,string)":"145448b9","register(string)":"f2c298be","version()":"54fd4d50"},"id":20}