{
    "abi": [
        {
            "type": "constructor",
            "inputs": [],
            "stateMutability": "nonpayable"
        },
        {
            "type": "function",
            "name": "addMemory",
            "inputs": [
                {
                    "name": "_muuid",
                    "type": "string",
                    "internalType": "string"
                },
                {
                    "name": "_auuid",
                    "type": "string",
                    "internalType": "string"
                }
            ],
            "outputs": [],
            "stateMutability": "nonpayable"
        },
        {
            "type": "function",
            "name": "agents",
            "inputs": [
                {
                    "name": "",
                    "type": "string",
                    "internalType": "string"
                }
            ],
            "outputs": [
                {
                    "name": "",
                    "type": "address",
                    "internalType": "address"
                }
            ],
            "stateMutability": "view"
        },
        {
            "type": "function",
            "name": "getAgent",
            "inputs": [
                {
                    "name": "_uuid",
                    "type": "string",
                    "internalType": "string"
                }
            ],
            "outputs": [
                {
                    "name": "",
                    "type": "address",
                    "internalType": "address"
                }
            ],
            "stateMutability": "view"
        },
        {
            "type": "function",
            "name": "getAuth",
            "inputs": [
                {
                    "name": "_muuid",
                    "type": "string",
                    "internalType": "string"
                },
                {
                    "name": "_auuid",
                    "type": "string",
                    "internalType": "string"
                }
            ],
            "outputs": [
                {
                    "name": "",
                    "type": "uint8",
                    "internalType": "uint8"
                }
            ],
            "stateMutability": "view"
        },
        {
            "type": "function",
            "name": "getMemory",
            "inputs": [
                {
                    "name": "_uuid",
                    "type": "string",
                    "internalType": "string"
                }
            ],
            "outputs": [
                {
                    "name": "",
                    "type": "address",
                    "internalType": "address"
                }
            ],
            "stateMutability": "view"
        },
        {
            "type": "function",
            "name": "getShare",
            "inputs": [
                {
                    "name": "_muuid",
                    "type": "string",
                    "internalType": "string"
                },
                {
                    "name": "_agent",
                    "type": "address",
                    "internalType": "address"
                }
            ],
            "outputs": [
                {
                    "name": "",
                    "type": "uint8",
                    "internalType": "uint8"
                }
            ],
            "stateMutability": "view"
        },
        {
            "type": "function",
            "name": "memories",
            "inputs": [
                {
                    "name": "",
                    "type": "string",
                    "internalType": "string"
                }
            ],
            "outputs": [
                {
                    "name": "",
                    "type": "address",
                    "internalType": "address"
                }
            ],
            "stateMutability": "view"
        },
        {
            "type": "function",
            "name": "registerAgent",
            "inputs": [
                {
                    "name": "_uuid",
                    "type": "string",
                    "internalType": "string"
                }
            ],
            "outputs": [],
            "stateMutability": "nonpayable"
        },
        {
            "type": "function",
            "name": "registerMemory",
            "inputs": [
                {
                    "name": "_uuid",
                    "type": "string",
                    "internalType": "string"
                }
            ],
            "outputs": [],
            "stateMutability": "nonpayable"
        },
        {
            "type": "function",
            "name": "shareMemory",
            "inputs": [
                {
                    "name": "_muuid",
                    "type": "string",
                    "internalType": "string"
                },
                {
                    "name": "_a",
                    "type": "address",
                    "internalType": "address"
                },
                {
                    "name": "_p",
                    "type": "uint8",
                    "internalType": "uint8"
                }
            ],
            "outputs": [],
            "stateMutability": "nonpayable"
        },
        {
            "type": "function",
            "name": "version",
            "inputs": [],
            "outputs": [
                {
                    "name": "",
                    "type": "string",
                    "internalType": "string"
                }
            ],
            "stateMutability": "view"
        }
    ],
    "bytecode": {
        "object": "0x60c060405260056080908152640302e312e360dc1b60a0525f9061002390826100cd565b5034801561002f575f5ffd5b50610187565b634e487b7160e01b5f52604160045260245ffd5b600181811c9082168061005d57607f821691505b60208210810361007b57634e487b7160e01b5f52602260045260245ffd5b50919050565b601f8211156100c857805f5260205f20601f840160051c810160208510156100a65750805b601f840160051c820191505b818110156100c5575f81556001016100b2565b50505b505050565b81516001600160401b038111156100e6576100e6610035565b6100fa816100f48454610049565b84610081565b6020601f82116001811461012c575f83156101155750848201515b5f19600385901b1c1916600184901b1784556100c5565b5f84815260208120601f198516915b8281101561015b578785015182556020948501946001909201910161013b565b508482101561017857868401515f19600387901b60f8161c191681555b50505050600190811b01905550565b610990806101945f395ff3fe608060405234801561000f575f5ffd5b50600436106100a6575f3560e01c80637ff541741161006e5780637ff541741461012e57806385606c2614610153578063aff4061614610166578063cf6ee0cb14610179578063f186c15f146101ad578063fbb7b6ff146101e1575f5ffd5b80632d2a9585146100aa5780634a67acb5146100bf57806354fd4d50146100d2578063794464e9146100f057806379ce247f1461011b575b5f5ffd5b6100bd6100b836600461076f565b6101f4565b005b6100bd6100cd3660046107c4565b6102a5565b6100da610372565b6040516100e79190610827565b60405180910390f35b6101036100fe36600461076f565b6103fd565b6040516001600160a01b0390911681526020016100e7565b61010361012936600461076f565b61042d565b61014161013c36600461085c565b61043e565b60405160ff90911681526020016100e7565b6101416101613660046108c1565b610486565b6100bd61017436600461085c565b6104c8565b61010361018736600461076f565b80516020818301810180516001825292820191909301209152546001600160a01b031681565b6101036101bb36600461076f565b80516020818301810180516002825292820191909301209152546001600160a01b031681565b6100bd6101ef36600461076f565b610656565b5f6001600160a01b031660018260405161020e919061090c565b908152604051908190036020019020546001600160a01b0316146102625760405162461bcd60e51b815260206004820152600660248201526565786973747360d01b60448201526064015b60405180910390fd5b33600182604051610273919061090c565b90815260405190819003602001902080546001600160a01b03929092166001600160a01b031990921691909117905550565b336001600160a01b03166002846040516102bf919061090c565b908152604051908190036020019020546001600160a01b0316146103165760405162461bcd60e51b815260206004820152600e60248201526d34b63632b3b0b61031b0b63632b960911b6044820152606401610259565b80600384604051610327919061090c565b90815260200160405180910390205f846001600160a01b03166001600160a01b031681526020019081526020015f205f6101000a81548160ff021916908360ff160217905550505050565b5f805461037e90610922565b80601f01602080910402602001604051908101604052809291908181526020018280546103aa90610922565b80156103f55780601f106103cc576101008083540402835291602001916103f5565b820191905f5260205f20905b8154815290600101906020018083116103d857829003601f168201915b505050505081565b5f60018260405161040e919061090c565b908152604051908190036020019020546001600160a01b031692915050565b5f60028260405161040e919061090c565b5f60048360405161044f919061090c565b90815260200160405180910390208260405161046b919061090c565b9081526040519081900360200190205460ff16905092915050565b5f600383604051610497919061090c565b908152604080519182900360209081019092206001600160a01b0385165f908152925290205460ff16905092915050565b336001600160a01b03166001826040516104e2919061090c565b908152604051908190036020019020546001600160a01b0316146105395760405162461bcd60e51b815260206004820152600e60248201526d34b63632b3b0b61031b0b63632b960911b6044820152606401610259565b336001600160a01b0316600283604051610553919061090c565b908152604051908190036020019020546001600160a01b0316146105d6575f600383604051610582919061090c565b9081526040805160209281900383019020335f908152925290205460ff16116105d65760405162461bcd60e51b81526020600482015260066024820152650eadcc2eae8d60d31b6044820152606401610259565b6003826040516105e6919061090c565b908152604080519182900360209081018320335f9081529152205460ff169060049061061390859061090c565b90815260200160405180910390208260405161062f919061090c565b908152604051908190036020019020805460ff9290921660ff199092169190911790555050565b5f6001600160a01b0316600282604051610670919061090c565b908152604051908190036020019020546001600160a01b0316146106bf5760405162461bcd60e51b815260206004820152600660248201526565786973747360d01b6044820152606401610259565b33600282604051610273919061090c565b634e487b7160e01b5f52604160045260245ffd5b5f82601f8301126106f3575f5ffd5b813567ffffffffffffffff81111561070d5761070d6106d0565b604051601f8201601f19908116603f0116810167ffffffffffffffff8111828210171561073c5761073c6106d0565b604052818152838201602001851015610753575f5ffd5b816020850160208301375f918101602001919091529392505050565b5f6020828403121561077f575f5ffd5b813567ffffffffffffffff811115610795575f5ffd5b6107a1848285016106e4565b949350505050565b80356001600160a01b03811681146107bf575f5ffd5b919050565b5f5f5f606084860312156107d6575f5ffd5b833567ffffffffffffffff8111156107ec575f5ffd5b6107f8868287016106e4565b935050610807602085016107a9565b9150604084013560ff8116811461081c575f5ffd5b809150509250925092565b602081525f82518060208401528060208501604085015e5f604082850101526040601f19601f83011684010191505092915050565b5f5f6040838503121561086d575f5ffd5b823567ffffffffffffffff811115610883575f5ffd5b61088f858286016106e4565b925050602083013567ffffffffffffffff8111156108ab575f5ffd5b6108b7858286016106e4565b9150509250929050565b5f5f604083850312156108d2575f5ffd5b823567ffffffffffffffff8111156108e8575f5ffd5b6108f4858286016106e4565b925050610903602084016107a9565b90509250929050565b5f82518060208501845e5f920191825250919050565b600181811c9082168061093657607f821691505b60208210810361095457634e487b7160e01b5f52602260045260245ffd5b5091905056fea26469706673582212209580f9b6f3f0c7a6a183d960f47b918adcaf3ff478f2562b7a616ac5040c33f664736f6c634300081c0033",
        "linkReferences": {}
    },
    "methodIdentifiers": {
        "addMemory(string,string)": "aff40616",
        "agents(string)": "cf6ee0cb",
        "getAgent(string)": "794464e9",
        "getAuth(string,string)": "7ff54174",
        "getMemory(string)": "79ce247f",
        "getShare(string,address)": "85606c26",
        "memories(string)": "f186c15f",
        "registerAgent(string)": "2d2a9585",
        "registerMemory(string)": "fbb7b6ff",
        "shareMemory(string,address,uint8)": "4a67acb5",
        "version()": "54fd4d50"
    },
    "id": 20
}