{
    "abi": [
        {
            "type": "constructor",
            "inputs": [],
            "stateMutability": "nonpayable"
        },
        {
            "type": "function",
            "name": "agents",
            "inputs": [
                {
                    "name": "",
                    "type": "string",
                    "internalType": "string"
                }
            ],
            "outputs": [
                {
                    "name": "",
                    "type": "address",
                    "internalType": "address"
                }
            ],
            "stateMutability": "view"
        },
        {
            "type": "function",
            "name": "connect",
            "inputs": [
                {
                    "name": "_muuid",
                    "type": "string",
                    "internalType": "string"
                },
                {
                    "name": "_auuid",
                    "type": "string",
                    "internalType": "string"
                }
            ],
            "outputs": [],
            "stateMutability": "nonpayable"
        },
        {
            "type": "function",
            "name": "getAgent",
            "inputs": [
                {
                    "name": "_uuid",
                    "type": "string",
                    "internalType": "string"
                }
            ],
            "outputs": [
                {
                    "name": "",
                    "type": "address",
                    "internalType": "address"
                }
            ],
            "stateMutability": "view"
        },
        {
            "type": "function",
            "name": "getAuth",
            "inputs": [
                {
                    "name": "_muuid",
                    "type": "string",
                    "internalType": "string"
                },
                {
                    "name": "_auuid",
                    "type": "string",
                    "internalType": "string"
                }
            ],
            "outputs": [
                {
                    "name": "",
                    "type": "uint8",
                    "internalType": "uint8"
                }
            ],
            "stateMutability": "view"
        },
        {
            "type": "function",
            "name": "getShare",
            "inputs": [
                {
                    "name": "_muuid",
                    "type": "string",
                    "internalType": "string"
                },
                {
                    "name": "_agent",
                    "type": "address",
                    "internalType": "address"
                }
            ],
            "outputs": [
                {
                    "name": "",
                    "type": "uint8",
                    "internalType": "uint8"
                }
            ],
            "stateMutability": "view"
        },
        {
            "type": "function",
            "name": "register",
            "inputs": [
                {
                    "name": "_uuid",
                    "type": "string",
                    "internalType": "string"
                }
            ],
            "outputs": [],
            "stateMutability": "nonpayable"
        },
        {
            "type": "function",
            "name": "shareTo",
            "inputs": [
                {
                    "name": "_uuid",
                    "type": "string",
                    "internalType": "string"
                },
                {
                    "name": "_a",
                    "type": "address",
                    "internalType": "address"
                },
                {
                    "name": "_p",
                    "type": "uint8",
                    "internalType": "uint8"
                }
            ],
            "outputs": [],
            "stateMutability": "nonpayable"
        },
        {
            "type": "function",
            "name": "version",
            "inputs": [],
            "outputs": [
                {
                    "name": "",
                    "type": "string",
                    "internalType": "string"
                }
            ],
            "stateMutability": "view"
        }
    ],
    "bytecode": {
        "object": "0x60c060405260056080908152640302e312e360dc1b60a0525f9061002390826100cd565b5034801561002f575f5ffd5b50610187565b634e487b7160e01b5f52604160045260245ffd5b600181811c9082168061005d57607f821691505b60208210810361007b57634e487b7160e01b5f52602260045260245ffd5b50919050565b601f8211156100c857805f5260205f20601f840160051c810160208510156100a65750805b601f840160051c820191505b818110156100c5575f81556001016100b2565b50505b505050565b81516001600160401b038111156100e6576100e6610035565b6100fa816100f48454610049565b84610081565b6020601f82116001811461012c575f83156101155750848201515b5f19600385901b1c1916600184901b1784556100c5565b5f84815260208120601f198516915b8281101561015b578785015182556020948501946001909201910161013b565b508482101561017857868401515f19600387901b60f8161c191681555b50505050600190811b01905550565b61088a806101945f395ff3fe608060405234801561000f575f5ffd5b5060043610610085575f3560e01c806396fedbf81161005857806396fedbf81461010a578063cf6ee0cb1461011f578063f2973f6214610153578063f2c298be14610166575f5ffd5b806354fd4d5014610089578063794464e9146100a75780637ff54174146100d257806385606c26146100f7575b5f5ffd5b610091610179565b60405161009e91906105ca565b60405180910390f35b6100ba6100b536600461069e565b610204565b6040516001600160a01b03909116815260200161009e565b6100e56100e03660046106d8565b610234565b60405160ff909116815260200161009e565b6100e5610105366004610758565b61027c565b61011d6101183660046107a3565b6102be565b005b6100ba61012d36600461069e565b80516020818301810180516001825292820191909301209152546001600160a01b031681565b61011d6101613660046106d8565b610390565b61011d61017436600461069e565b61051e565b5f805461018590610806565b80601f01602080910402602001604051908101604052809291908181526020018280546101b190610806565b80156101fc5780601f106101d3576101008083540402835291602001916101fc565b820191905f5260205f20905b8154815290600101906020018083116101df57829003601f168201915b505050505081565b5f600182604051610215919061083e565b908152604051908190036020019020546001600160a01b031692915050565b5f600383604051610245919061083e565b908152602001604051809103902082604051610261919061083e565b9081526040519081900360200190205460ff16905092915050565b5f60028360405161028d919061083e565b908152604080519182900360209081019092206001600160a01b0385165f908152925290205460ff16905092915050565b336001600160a01b03166001846040516102d8919061083e565b908152604051908190036020019020546001600160a01b0316146103345760405162461bcd60e51b815260206004820152600e60248201526d34b63632b3b0b61031b0b63632b960911b60448201526064015b60405180910390fd5b80600284604051610345919061083e565b90815260200160405180910390205f846001600160a01b03166001600160a01b031681526020019081526020015f205f6101000a81548160ff021916908360ff160217905550505050565b336001600160a01b03166001826040516103aa919061083e565b908152604051908190036020019020546001600160a01b0316146104015760405162461bcd60e51b815260206004820152600e60248201526d34b63632b3b0b61031b0b63632b960911b604482015260640161032b565b336001600160a01b031660018360405161041b919061083e565b908152604051908190036020019020546001600160a01b03161461049e575f60028360405161044a919061083e565b9081526040805160209281900383019020335f908152925290205460ff161161049e5760405162461bcd60e51b81526020600482015260066024820152650eadcc2eae8d60d31b604482015260640161032b565b6002826040516104ae919061083e565b908152604080519182900360209081018320335f9081529152205460ff16906003906104db90859061083e565b9081526020016040518091039020826040516104f7919061083e565b908152604051908190036020019020805460ff9290921660ff199092169190911790555050565b5f6001600160a01b0316600182604051610538919061083e565b908152604051908190036020019020546001600160a01b0316146105875760405162461bcd60e51b815260206004820152600660248201526565786973747360d01b604482015260640161032b565b33600182604051610598919061083e565b90815260405190819003602001902080546001600160a01b03929092166001600160a01b031990921691909117905550565b602081525f82518060208401528060208501604085015e5f604082850101526040601f19601f83011684010191505092915050565b634e487b7160e01b5f52604160045260245ffd5b5f82601f830112610622575f5ffd5b813567ffffffffffffffff81111561063c5761063c6105ff565b604051601f8201601f19908116603f0116810167ffffffffffffffff8111828210171561066b5761066b6105ff565b604052818152838201602001851015610682575f5ffd5b816020850160208301375f918101602001919091529392505050565b5f602082840312156106ae575f5ffd5b813567ffffffffffffffff8111156106c4575f5ffd5b6106d084828501610613565b949350505050565b5f5f604083850312156106e9575f5ffd5b823567ffffffffffffffff8111156106ff575f5ffd5b61070b85828601610613565b925050602083013567ffffffffffffffff811115610727575f5ffd5b61073385828601610613565b9150509250929050565b80356001600160a01b0381168114610753575f5ffd5b919050565b5f5f60408385031215610769575f5ffd5b823567ffffffffffffffff81111561077f575f5ffd5b61078b85828601610613565b92505061079a6020840161073d565b90509250929050565b5f5f5f606084860312156107b5575f5ffd5b833567ffffffffffffffff8111156107cb575f5ffd5b6107d786828701610613565b9350506107e66020850161073d565b9150604084013560ff811681146107fb575f5ffd5b809150509250925092565b600181811c9082168061081a57607f821691505b60208210810361083857634e487b7160e01b5f52602260045260245ffd5b50919050565b5f82518060208501845e5f92019182525091905056fea26469706673582212208d69f239d3ec168c3047aebb22f0f01b9954bfd8fcd11f5737a057d8cfcaa50d64736f6c634300081c0033",
        "linkReferences": {}
    },
    "methodIdentifiers": {
        "agents(string)": "cf6ee0cb",
        "connect(string,string)": "f2973f62",
        "getAgent(string)": "794464e9",
        "getAuth(string,string)": "7ff54174",
        "getShare(string,address)": "85606c26",
        "register(string)": "f2c298be",
        "shareTo(string,address,uint8)": "96fedbf8",
        "version()": "54fd4d50"
    },
    "id": 20
}